:100000000C9463000C948B000C948B000C948B006C
:100010000C948B000C948B000C948B000C94070BAD
:100020000C948B000C948B000C948B000C948B0024
:100030000C948B000C948B000C948B000C948B0014
:100040000C9481050C948B000C9498070C94E60793
:100050000C948B000C948B000C948B000C948B00F4
:100060000C948B000C948B000000000024002700EF
:100070002A0000000000250028002B0000000000DE
:1000800023002600290004040404040404040202DA
:100090000202020203030303030301020408102007
:1000A0004080010204081020010204081020000012
:1000B0000007000201000003040600000000000029
:1000C00000000200490911241FBECFEFD8E0DEBFB7
:1000D000CDBF11E0A0E0B1E0E8EBFCE102C005908B
:1000E0000D92A434B107D9F712E0A4E4B1E001C045
:1000F0001D92A133B107E1F710E0C6ECD0E004C0D7
:100100002297FE010E941F0EC43CD107C9F70E942E
:100110009F090C945A0E0C940000A0E0B0E0E3E9B3
:10012000F0E00C942B0EEC01A880B980CA80DB8033
:10013000A114B104C104D10441F484E2A82E89EDD4
:10014000B82E8BE5C82E87E0D82EC601B5012DE16B
:1001500033EF41E050E00E94020E27EA31E440E034
:1001600050E00E94C10D7B018C01C601B5012DE15B
:1001700033EF41E050E00E94020ECA01B9012CEEBB
:1001800034EF4FEF5FEF0E94C10D6E0D7F1D801F9A
:10019000911F97FF04C06150704080409048688371
:1001A00079838A839B839B01AC015F77B901CA0184
:1001B000CDB7DEB7EAE00C94470E0E948D0008959B
:1001C0008DE291E00E948D00089560932D0170935F
:1001D0002E0180932F019093300108959C0181306E
:1001E000910519F483EF85B912C08230910519F495
:1001F00089E485B912C08330910519F481E685B987
:1002000011C08430910519F483E385B911C02530FC
:10021000310519F485E285B911C02630310511F494
:1002200085E004C02730310519F481EF85B912C08B
:100230002830310519F481E085B912C02930310523
:1002400019F481E285B912C02115310519F481E84C
:1002500085B912C02A30310519F481E185B912C07F
:100260002B30310519F487E085B912C02C303105E7
:1002700019F48DE885B912C02D30310519F483E4E5
:1002800085B912C02E30310519F48DE085B912C040
:100290002F30310519F48DE185B912C025363105AD
:1002A00019F48DEF85B911C02636310519F48BEF9D
:1002B00085B910C02736310519F487EF85B910C00C
:1002C0002836310511F48FEE09C02936310511F4B5
:1002D0008FED04C02A36310519F48FEB85B90895E6
:1002E0002B36310511F48FE785B908950F931F93CD
:1002F000CF93DF93BC0183E06C35780719F402E3F8
:1003000010E003C08B0106591040EB010FC086E0DE
:10031000BE0129E130E040E050E00E94630B69E15A
:1003200070E080E090E00E94FB052A970C171D0703
:1003300074F3DF91CF911F910F910895CF93DF93C5
:10034000EC01009779F485E060E00E94F00684E01B
:1003500060E00E94F00683E060E00E94F00682E028
:1003600060E016C080FF04C085E061E00E94F006F6
:10037000C1FF04C084E061E00E94F006C2FF04C037
:1003800083E061E00E94F006C3FF04C082E061E008
:100390000E94F006DF91CF9108958CE090E00E94DA
:1003A0009E0188E592E00E94760180E090E00E9444
:1003B0009E0183E090E00E949E018CE291E00E9409
:1003C000760180E090E00E949E018CE090E00E9427
:1003D0009E0188E592E00E94760180E090E00E9414
:1003E0009E0183E090E00E949E018CE291E00E94D9
:1003F000760180E090E00E949E010895CF93DF9304
:10040000EB010E94EE00C130D10539F483E161E0D7
:100410000E94F00682E160E008C0229741F483E187
:1004200060E00E94F00682E161E00E94F00662E373
:1004300070E080E090E00E94FB0583E160E00E94B4
:10044000F00682E160E00E94F006DF91CF9108950E
:1004500085E690E061E070E00E94FE0186E690E0B3
:1004600061E070E00E94FE0187E690E061E070E0EC
:100470000E94FE0188E690E061E070E00E94FE01CB
:1004800088E690E062E070E00E94FE0189E690E07C
:1004900062E070E00E94FE018AE690E062E070E0B7
:1004A0000E94FE0185E690E062E070E00E94FE019D
:1004B0000895009711F485E00DC08130910511F485
:1004C00084E008C08230910511F483E003C00397F3
:1004D00021F482E061E00E94F00662E370E080E0D7
:1004E00090E00E94FB0585E060E00E94F00684E059
:1004F00060E00E94F00683E060E00E94F00682E087
:1005000060E00E94F006089580E090E00E945902A9
:1005100081E090E00E94590282E090E00E9459023E
:1005200083E090E00E94590282E090E00E9459022C
:1005300081E090E00E94590280E090E00E94590220
:100540000895CF92DF92EF92FF920F931F93CF9374
:10055000DF93EB012FEF6F3F720721F033E0C32EE3
:10056000D12C03C026E0C22ED12C0E94EE0083E1E4
:1005700061E00E94F00682E160E00E94F0067601F0
:100580000027F7FC0095102FC801B7010E94FB055A
:100590008FEFCF3FD80779F0CE010E94EE0083E1C4
:1005A00060E00E94F00682E161E00E94F006C8016E
:1005B000B7010E94FB0583E160E00E94F00682E142
:1005C00060E00E94F006DF91CF911F910F91FF90A4
:1005D000EF90DF90CF900895AC0120E030E08A30BA
:1005E000910514F421E030E08091680190E0282B1F
:1005F000392B232B21F0CA016FEF7FEF09C0CA010D
:1006000060E070E00A976F5F7F4F8A309105D4F702
:100610000E94A10208950F931F93CF93DF930AE0E6
:1006200010E012C0C8010E94EC022196C233D1052D
:10063000C9F762E370E080E090E00E94FB050F5F85
:100640001F4F0031110519F0C0E0D0E0EBCFDF9172
:10065000CF911F910F910895EF92FF920F931F93E7
:10066000CF93DF938C017B01C0E0D0E007C0C801CD
:100670000E94EC02C8010E949E012196CE15DF0562
:10068000B4F380E090E00E949E01DF91CF911F9132
:100690000F91FF90EF900895EF92FF920F931F93A9
:1006A000CF93DF930E94D5057B018C01809164017B
:1006B00090916501A0916601B0916701E81AF90A6D
:1006C0000A0B1B0B8AEF91E063E071E00E94CC0AF9
:1006D0008AEF91E0B801A7012AE030E00E94B80A51
:1006E000C801B70120E432E44FE050E00E94020E5E
:1006F00089010E9484020E9484020E9484028091E7
:100700006801882381F010926801C0E0D0E0C80140
:100710000E94EC02219681E0CC32D807C1F781E03B
:10072000809368010AC0C0E0D0E0C8010E94EC02DA
:10073000219681E0CC32D807C1F70E942802DF91D0
:10074000CF911F910F91FF90EF900895CF93DF937A
:1007500081E10E944407C0E0D0E0892B11F4C1E0A0
:10076000D0E080E10E944407892B09F4C2608FE049
:100770000E944407892B09F4C4608EE00E9444075C
:10078000892B09F4C860CE01DF91CF9108950F93B2
:100790001F93CF93DF9301E010E0C8010E949E01F8
:1007A000C0E0D0E0C8010E94EC020E94A603892BA1
:1007B00011F080E00EC02196CA3FD10599F780E084
:1007C00090E00E949E010F5F1F4F0031110529F735
:1007D00081E0DF91CF911F910F9108950F931F93A7
:1007E000CF93DF938C01C8EED3E0C8010E94EC02E6
:1007F00080E090E00E949E010E94A6030E949E015C
:100800000E94A6038017910711F481E003C021978D
:1008100061F780E0DF91CF911F910F910895AF9222
:10082000BF92CF92DF92EF92FF920F931F93DF93CD
:10083000CF93CDB7DEB7A0970FB6F894DEBF0FBE4B
:10084000CDBFFE01319680E2DF011D928A95E9F766
:1008500081E090E09A83898382E090E09C838B839F
:1008600083E090E09E838D8384E090E098878F837F
:1008700085E090E09A87898786E090E09C878B8767
:1008800087E090E09E878D8788E090E0988B8F8747
:1008900089E090E09A8B898B8AE090E09C8B8B8B2F
:1008A0008BE090E09E8B8D8B8CE090E0988F8F8B0F
:1008B0008DE090E09A8F898F8EE090E09C8F8B8FF7
:1008C0008FE090E09E8F8D8FA4E4CA2EA1E0DA2EF7
:1008D0007FE0E72EF12C012D112D5F0160E070E02B
:1008E00080E090E0A80197010E949B0DAB01BC0144
:1008F000FA01EE0FFF1FEA0DFB1D80819181D601E9
:100900008D939C9320E030E006C082819381819397
:1009100091932F5F3F4FC901840F951F0F97ACF341
:100920000894E108F1080109110982E090E0C80E7D
:10093000D91E92E6C91691E0D90681F6A0960FB6A7
:10094000F894DEBF0FBECDBFCF91DF911F910F9105
:10095000FF90EF90DF90CF90BF90AF900895EF920F
:10096000FF920F931F93CF93DF930E94C7038823B7
:10097000E1F70E940F040E9484020E94D505609353
:1009800064017093650180936601909367018AEF1B
:1009900091E06CE171E00E94CC0A409164015091B9
:1009A000650160916601709167018AEF91E02AE02C
:1009B00030E00E94B80A04E411E0C0E0D0E08CE22C
:1009C000E82E81E0F82E0CC00E5F1F4F88E290E009
:1009D000E80EF91ECF30D10519F40E944C032CC04B
:1009E0000E942802F801808191810E94EC02F801A6
:1009F000808191810E94EE03882381F00E94A603EA
:100A00000E949E01C7010E94760180E090E00E9452
:100A10009E012196C031D105BCF20EC00E94CD01CD
:100A2000CC0FDD1FCC5BDE4F8881998164EF71E0D4
:100A30000E942C030E942802DF91CF911F910F91F9
:100A4000FF90EF9008958AEF91E040E855E260E072
:100A500070E00E9421088EE00E948F060E94B90D6E
:100A600081E162E00E94B10680E162E00E94B1068D
:100A70008FE062E00E94B1068EE062E00E94B10663
:100A800085E061E00E94B10684E061E00E94B10669
:100A900083E061E00E94B10682E061E00E94B1065D
:100AA00085E060E00E94F00684E060E00E94F006CD
:100AB00083E060E00E94F00682E060E00E94F006C1
:100AC00083E161E00E94B10682E161E00E94B1062B
:100AD0008FEF84B915B881E10E944407892B31F466
:100AE00081E0809368010E940B0302C010926801AC
:100AF0000E9428020E9484028CE291E00E9476010A
:100B000008951F920F920FB60F9211242F933F93C7
:100B10004F935F936F937F938F939F93AF93BF9305
:100B200020916D0130916E0140916F0150917001E3
:100B300070917101DA01C9010296A11DB11D672FE3
:100B40006A5F6D3730F06D57DA01C9010396A11D58
:100B5000B11D6093710180936D0190936E01A0931C
:100B60006F01B09370018091690190916A01A09129
:100B70006B01B0916C010196A11DB11D80936901BB
:100B800090936A01A0936B01B0936C01BF91AF91F8
:100B90009F918F917F916F915F914F913F912F9195
:100BA0000F900FBE0F901F9018959FB7F89420914B
:100BB000690130916A0140916B0150916C0186B5D9
:100BC000A89B06C08F3F21F02F5F3F4F4F4F5F4FD5
:100BD0009FBF542F432F322F2227280F311D411D35
:100BE000511D83E0220F331F441F551F8A95D1F7F3
:100BF000B901CA0108959B01AC017FB7F8948091B7
:100C0000690190916A01A0916B01B0916C0166B588
:100C1000A89B05C06F3F19F00196A11DB11D7FBFB4
:100C2000BA2FA92F982F8827860F911DA11DB11DBE
:100C300063E0880F991FAA1FBB1F6A95D1F7BC01FB
:100C40002DC0FFB7F8948091690190916A01A0913D
:100C50006B01B0916C01E6B5A89B05C0EF3F19F0A0
:100C60000196A11DB11DFFBFBA2FA92F982F88276C
:100C70008E0F911DA11DB11DE3E0880F991FAA1FC2
:100C8000BB1FEA95D1F7861B970B885E9340C8F28D
:100C9000215030404040504068517C4F2115310573
:100CA0004105510571F60895789484B5826084BD3C
:100CB00084B5816084BD85B5826085BD85B5816060
:100CC00085BDEEE6F0E0808181608083E1E8F0E0C0
:100CD0001082808182608083808181608083E0E8EF
:100CE000F0E0808181608083E1EBF0E080818460CE
:100CF0008083E0EBF0E0808181608083EAE7F0E0D0
:100D00008081846080838081826080838081816033
:100D100080838081806880831092C1000895982F1D
:100D20008E3008F09E509770809131018295880F27
:100D3000880F807C892B80937C0080917A0080646E
:100D400080937A0080917A0086FDFCCF2091780014
:100D500040917900942F80E030E0282B392BC90195
:100D60000895CF93DF93482F50E0CA0186569F4FD6
:100D7000FC0134914A575F4FFA018491882369F14D
:100D800090E0880F991FFC01E859FF4FA591B4919D
:100D9000FC01EE58FF4FC591D491662351F42FB753
:100DA000F8948C91932F909589238C938881892333
:100DB0000BC0623061F42FB7F8948C91932F90950B
:100DC00089238C938881832B88832FBF06C09FB78C
:100DD000F8948C91832B8C939FBFDF91CF910895D2
:100DE000482F50E0CA0182559F4FFC012491CA014F
:100DF00086569F4FFC0194914A575F4FFA013491F8
:100E0000332309F440C0222351F1233071F0243000
:100E100028F42130A1F0223011F514C02630B1F0B1
:100E20002730C1F02430D9F404C0809180008F773E
:100E300003C0809180008F7D8093800010C084B5B6
:100E40008F7702C084B58F7D84BD09C08091B000CA
:100E50008F7703C08091B0008F7D8093B000E32F27
:100E6000F0E0EE0FFF1FEE58FF4FA591B4912FB7A2
:100E7000F894662321F48C919095892302C08C917B
:100E8000892B8C932FBF0895682F70E0CB0182557A
:100E90009F4FFC012491CB0186569F4FFC0144914A
:100EA0006A577F4FFB019491992319F420E030E0B9
:100EB0003CC0222351F1233071F0243028F421303A
:100EC000A1F0223011F514C02630B1F02730C1F066
:100ED0002430D9F404C0809180008F7703C08091C2
:100EE00080008F7D8093800010C084B58F7702C012
:100EF00084B58F7D84BD09C08091B0008F7703C019
:100F00008091B0008F7D8093B000892F90E0880F92
:100F1000991F84589F4FFC01A591B4918C9120E0BA
:100F200030E0842311F021E030E0C90108950895F4
:100F30001F920F920FB60F9211242F933F934F934E
:100F40008F939F93EF93FF938091C00082FD1DC00C
:100F50004091C6002091B2013091B3012F5F3F4F05
:100F60002F7330708091B4019091B5012817390723
:100F700071F0E091B201F091B301EE58FE4F408361
:100F80003093B3012093B20102C08091C600FF915B
:100F9000EF919F918F914F913F912F910F900FBEA5
:100FA0000F901F901895E0910602F0910702E05C07
:100FB000FF4F8191919120813181821B930B8F731F
:100FC0009070892B11F00E94970708951F920F923D
:100FD0000FB60F9211242F933F938F939F93EF930C
:100FE000FF932091F6013091F7018091F8019091E3
:100FF000F9012817390731F48091C1008F7D809362
:10100000C10014C0E091F801F091F901EA54FE4FDB
:1010100020818091F8019091F90101968F73907071
:101020009093F9018093F8012093C600FF91EF910E
:101030009F918F913F912F910F900FBE0F901F9016
:101040001895AF92BF92DF92EF92FF920F931F938A
:10105000CF93DF93EC017A018B01DD24D39491E0EF
:10106000A92EB12CEC89FD89DD2069F0C50108A00D
:1010700002C0880F991F0A94E2F7808360E874E841
:101080008EE190E005C0108260E472E48FE090E0B1
:10109000A80197010E94E00D21503040404050408F
:1010A000569547953795279580E12030380720F0F1
:1010B000DD2011F0DD24D6CFE889F9893083EA8973
:1010C000FB89208319A2EE89FF89408121E030E06D
:1010D000C9010C8C02C0880F991F0A94E2F7482BB3
:1010E0004083EE89FF894081C9010D8C02C0880FC1
:1010F000991F0A94E2F7482B4083EE89FF894081CB
:10110000C9010E8C02C0880F991F0A94E2F7482B80
:101110004083EE89FF8980810F8C02C0220F331F2C
:101120000A94E2F7209528232083DF91CF911F9125
:101130000F91FF90EF90DF90BF90AF900895DC018A
:101140001C96ED91FC911D97E05CFF4F2191319130
:1011500080819181281B390B2F733070C90108954C
:10116000DC011C96ED91FC911D97E05CFF4F208106
:101170003181E054F040DF01AE5BBF4F8D919C9117
:1011800011972817390719F42FEF3FEF07C08D91FA
:101190009C91E80FF91F8081282F30E0C901089544
:1011A000DC011C96ED91FC911D97E05CFF4F2081C6
:1011B0003181E054F040DF01AE5BBF4F8D919C91D7
:1011C00011972817390719F42FEF3FEF10C08D91B1
:1011D0009C911197E80FF91F20818D919C91119797
:1011E00001968F73907011969C938E9330E0C90195
:1011F0000895DC0191968C919197882339F054964B
:10120000ED91FC915597808186FFF9CF91961C92C4
:101210000895CF93DF93EC01EE85FF85E05CFF4FEF
:1012200020813181E054F0402F5F3F4F2F733070A9
:10123000DF01AE5BBF4F8D919C9111972817390745
:10124000D1F3E05CFF4F80819181E054F040E80FE2
:10125000F91F6083EE85FF85E05CFF4F31832083BB
:10126000EE89FF89208181E090E00F8C02C0880F19
:10127000991F0A94E2F7282B208381E089A3EC8947
:10128000FD8980818064808381E090E0DF91CF914F
:1012900008951092FD011092FC0188EE93E0A0E009
:1012A000B0E08093FE019093FF01A0930002B09301
:1012B000010287E391E09093FB018093FA0182E7BA
:1012C00091E0909307028093060286EB91E0909361
:1012D00009028093080285EC90E090930B028093C2
:1012E0000A0284EC90E090930D0280930C0280EC53
:1012F00090E090930F0280930E0281EC90E0909327
:1013000011028093100282EC90E09093130280937C
:10131000120286EC90E0909315028093140284E010
:101320008093160283E08093170287E0809318026F
:1013300085E08093190281E080931A020895CF938B
:10134000DF930E9454060E942305C3EDD7E00E945C
:10135000AF042097E1F30E94D307F9CFCF92DF9239
:10136000EF92FF920F931F93CF93DF937C016B015A
:101370008A01C0E0D0E00FC0D6016D916D01D701A8
:10138000ED91FC910190F081E02DC7010995C80F06
:10139000D91F015010400115110571F7CE01DF91E1
:1013A000CF911F910F91FF90EF90DF90CF90089514
:1013B000EF92FF920F931F938C01DC01ED91FC9152
:1013C0000190F081E02D6DE009957C01D801ED914F
:1013D000FC910190F081E02DC8016AE009959C0123
:1013E0002E0D3F1DC9011F910F91FF90EF900895A1
:1013F000CF93DF93EC016115710519F420E030E023
:101400000FC0DB010D900020E9F71197A61BB70B69
:10141000E881F9810280F381E02DAD0109959C01FD
:10142000C901DF91CF9108954F925F927F928F9281
:101430009F92AF92BF92CF92DF92EF92FF920F9363
:101440001F93DF93CF93CDB7DEB7A1970FB6F89474
:10145000DEBF0FBECDBF2C01742ECB01223008F4AD
:101460002AE019A231E2C32ED12CCC0EDD1E822E31
:101470009924AA24BB24672D752FA50194010E94ED
:10148000E00D79018A01C801B701A50194010E940C
:10149000C10D472D461B0894C108D1084A3014F4E9
:1014A000405D01C0495CF6014083E114F10401058F
:1014B000110521F07E2C5F2DC801DDCFC201B601E0
:1014C0000E94F809A1960FB6F894DEBF0FBECDBFFB
:1014D000CF91DF911F910F91FF90EF90DF90CF9010
:1014E000BF90AF909F908F907F905F904F900895A6
:1014F000CF92DF92EF92FF920F931F93CF93DF93E0
:10150000EC016A017B012115310541F4E881F98183
:101510000190F081E02D642F09951FC02A3031051C
:10152000D1F477FF17C0E881F9810190F081E02DB7
:101530006DE209958C0144275527BA014C195D09C4
:101540006E097F09CE012AE00E94140A9801280F33
:10155000391F04C02AE00E94140A9C01C901DF91CE
:10156000CF911F910F91FF90EF90DF90CF90089552
:10157000EF92FF920F931F937C010E94780A8C01D7
:10158000C7010E94D8099C01200F311FC9011F917A
:101590000F91FF90EF9008950E94F809089581300F
:1015A00041F0813018F08230D1F409C010926E0001
:1015B000089580916F008D7F80936F0008958091D2
:1015C00070008D7F8093700081E08093B0008091E7
:1015D000B100887F84608093B1001092B3000895B9
:1015E0001F93182F80913201811711F09FEF06C0D1
:1015F000E2ECF0E094918FEF80933201892F0E940A
:10160000CF0A812F60E00E94F0061F9108951F927B
:101610000F920FB60F9211242F933F934F935F9326
:101620006F937F938F939F93AF93BF93EF93FF93AA
:1016300080912A0290912B02A0912C02B0912D0250
:101640000097A105B10551F1E0912E02F0912F0212
:101650008081909130028927808380912A02909125
:101660002B02A0912C02B0912D02181619061A0611
:101670001B06C4F480912A0290912B02A0912C02A7
:10168000B0912D020197A109B10980932A0290938C
:101690002B02A0932C02B0932D0204C08091320142
:1016A0000E94F00AFF91EF91BF91AF919F918F91AE
:1016B0007F916F915F914F913F912F910F900FBE4E
:1016C0000F901F9018952F923F925F926F927F928A
:1016D0008F929F92AF92BF92CF92DF92EF92FF9242
:1016E0000F931F93DF93CF9300D000D0CDB7DEB719
:1016F000A82F1B0129833A834B835C83809132019D
:101700008A1721F4E2ECF0E0549082C08F3F09F098
:10171000DAC1A0933201E2ECF0E054902FEF5216C0
:1017200009F4D1C181E0581639F192E0591609F453
:1017300049C0552009F06CC014BC15BC84B582604A
:1017400084BD85B5816085BD2A2F30E0F901EA5757
:10175000FF4FE491F0E0EE0FFF1FEE58FF4F859131
:101760009491909321028093200226563F4FF901D5
:101770008491809322024EC01092800010928100CA
:1017800080918100886080938100809181008160D8
:10179000809381002A2F30E0F901EA57FF4FE4914E
:1017A000F0E0EE0FFF1FEE58FF4F8591949190935C
:1017B00028028093270226563F4FF9018491809397
:1017C000290228C01092B0001092B1008091B000A0
:1017D00082608093B0008091B10081608093B100FD
:1017E0002A2F30E0F901EA57FF4FE491F0E0EE0FC5
:1017F000FF1FEE58FF4F8591949190932F02809395
:101800002E0226563F4FF90184918093300202C088
:1018100057FC59C18A2F61E00E94B106552021F082
:10182000F2E05F1609F0BEC031018824992460E01F
:1018300079E08DE390E0A40193010E94020E59012A
:101840006A01860175010894E108F108010911098E
:101850002FEFE216F1040105110509F008F499C013
:1018600060E271EA87E090E0A40193010E94020E19
:1018700079018A010894E108F1080109110982E05F
:101880005816C1F49FEFE916F1040105110509F09E
:1018900008F484C068E478EE81E090E0A40193014C
:1018A0000E94020E79018A010894E108F1080109F9
:1018B000110983E0AFEFEA16F1040105110509F003
:1018C00008F468C064E274EF80E090E0A401930142
:1018D0000E94020E79018A010894E108F1080109C9
:1018E0001109552011F483E01DC0B2E05B1611F020
:1018F00084E018C0EFEFEE16F1040105110509F0C0
:1019000008F4DFC062E17AE780E090E0A40193018F
:101910000E94020E79018A010894E108F108010988
:10192000110985E0FFEFEF16F1040105110591F1B2
:1019300088F169E07DE380E090E0A40193010E94DA
:10194000020E79018A010894E108F10801091109E0
:10195000552011F086E001C084E02FEFE216F1047B
:1019600001051105B9F0B0F0C601B50120E034E081
:1019700040E050E00E94020E79018A010894E108DB
:10198000F10801091109552011F087E008C085E030
:1019900003C081E0552019F485BD3AC082E08093F0
:1019A000B10036C05101CC24DD2460E079E08DE344
:1019B00090E0A60195010E94020E79018A01089427
:1019C000E108F1080109110980E0E81680E0F80655
:1019D00081E0080780E0180710F491E010C064E28D
:1019E00074EF80E090E0A60195010E94020E79015B
:1019F0008A010894E108F1080109110993E0A1E0C6
:101A00005A1631F480918100887F982B9093810041
:101A100089819A81AB81BC810097A105B10529F428
:101A20008FEF9FEFAFEFBFEF13C0220C331CB1015C
:101A300080E090E029813A814B815C810E94C10D58
:101A400028EE33E040E050E00E94E00DC901DA01E9
:101A5000E1E05E16A1F0F2E05F1619F1552099F56C
:101A6000E7BC80931C0290931D02A0931E02B093CA
:101A70001F0280916E00826080936E0024C0F092FD
:101A80008900E09288008093230290932402A0931F
:101A90002502B093260280916F00826080936F00D0
:101AA00012C0E092B30080932A0290932B02A0937D
:101AB0002C02B0932D0280917000826080937000A0
:101AC00002C084E06CCF0F900F900F900F90CF91D9
:101AD000DF911F910F91FF90EF90DF90CF90BF901B
:101AE000AF909F908F907F906F905F903F902F90DE
:101AF0000895EF92FF920F931F937B018C01611564
:101B000071058105910529F420E030E040E050E0C6
:101B10000BC00E94E000A80197010E94020EAC01D8
:101B2000CB01DA019C01AD01B901CA011F910F91EE
:101B3000FF90EF900895EF92FF920F931F937B0118
:101B40008C01621773078407950764F4261B370B13
:101B5000480B590BCA01B9010E94790DE60EF71E18
:101B6000081F191FB701C8011F910F91FF90EF9037
:101B70000895009729F0BC0180E090E00E94E50004
:101B80000895629FD001739FF001829FE00DF11DC7
:101B9000649FE00DF11D929FF00D839FF00D749FE7
:101BA000F00D659FF00D9927729FB00DE11DF91F93
:101BB000639FB00DE11DF91FBD01CF0111240895F0
:101BC000A1E21A2EAA1BBB1BFD010DC0AA1FBB1F41
:101BD000EE1FFF1FA217B307E407F50720F0A21BB3
:101BE000B30BE40BF50B661F771F881F991F1A9420
:101BF00069F760957095809590959B01AC01BD014A
:101C0000CF01089597FB092E05260ED057FD04D06D
:101C1000D7DF0AD0001C38F45095409530952195B7
:101C20003F4F4F4F5F4F0895F6F790958095709511
:101C300061957F4F8F4F9F4F0895EE0FFF1F0590C7
:101C4000F491E02D09942F923F924F925F926F9200
:101C50007F928F929F92AF92BF92CF92DF92EF923C
:101C6000FF920F931F93CF93DF93CDB7DEB7CA1BBD
:101C7000DB0B0FB6F894DEBF0FBECDBF09942A88E8
:101C8000398848885F846E847D848C849B84AA8490
:101C9000B984C884DF80EE80FD800C811B81AA811D
:101CA000B981CE0FD11D0FB6F894DEBF0FBECDBFE8
:101CB000ED010895F894FFCF2C2000746F74616CCF
:101CC0005F74696D655F6D6963726F7365636F6E75
:101CD00064733A0073746172745F74696D657374D0
:101CE000616D703A000100000001FF000000000972
:101CF00009AE099F08D008B008F90800FFFFFFFFF0
:101D00006C5F74696D655F6D6963726F7365636F36
:101D10006E64733A002C20003A00434F5252454300
:101D200054210073746172743A00010000001300C2
:101D30001200110010000F000E0005000400030047
:101D40000200FF00000000DA087F097008A1088186
:101D500008CA0800FFFFFFFFFFFFFFFFFFFFFFFFB5
:101D6000FFFFFFFFFFFFFFFFFFFFFFFFFFFFFFFF83
:101D7000FFFFFFFFFFFFFFFFFFFFFFFFFFFFFFFF73
:101D8000FFFFFFFFFFFFFFFFFFFFFFFFFFFFFFFF63
:101D9000FFFFFFFFFFFFFFFFFFFFFFFFFFFFFFFF53
:107800000C94343C0C94513C0C94513C0C94513CE1
:107810000C94513C0C94513C0C94513C0C94513CB4
:107820000C94513C0C94513C0C94513C0C94513CA4
:107830000C94513C0C94513C0C94513C0C94513C94
:107840000C94513C0C94513C0C94513C0C94513C84
:107850000C94513C0C94513C0C94513C0C94513C74
:107860000C94513C0C94513C11241FBECFEFD8E036
:10787000DEBFCDBF11E0A0E0B1E0EAE8FFE702C063
:1078800005900D92A230B107D9F712E0A2E0B1E065
:1078900001C01D92AD30B107E1F70E942D3D0C945F
:1078A000C33F0C94003C982F95959595959595958B
:1078B000905D8F708A307CF0282F295A8091C0000B
:1078C00085FFFCCF9093C6008091C00085FFFCCF60
:1078D0002093C6000895282F205DF0CF982F809127
:1078E000C00085FFFCCF9093C6000895EF92FF92F1
:1078F0000F931F93EE24FF2487018091C00087FD22
:1079000017C00894E11CF11C011D111D81E2E8164D
:1079100081EAF80687E0080780E0180770F3E09135
:107920000401F091050109958091C00087FFE9CF1E
:107930008091C6001F910F91FF90EF9008950E94D3
:10794000763C982F8091C00085FFFCCF9093C600B5
:1079500091362CF490330CF09053892F089597555D
:10796000892F08951F930E949F3C182F0E949F3CCF
:107970001295107F810F1F9108951F93182F882350
:1079800021F00E94763C1150E1F71F9108951F935A
:10799000182F0E94763C803249F0809103018F5F5E
:1079A000809303018530C1F01F9108958091C0003C
:1079B00085FFFCCF84E18093C6008091C00085FFE5
:1079C000FCCF1093C6008091C00085FFFCCF80E102
:1079D0008093C6001F910895E0910401F091050184
:1079E00009951F9108950E94763C803241F0809164
:1079F00003018F5F80930301853081F008958091AA
:107A0000C00085FFFCCF84E18093C6008091C00058
:107A100085FFFCCF80E18093C6000895E0910401CA
:107A2000F09105010995089548EC50E08823A1F0F4
:107A30002D9A28EE33E0FA013197F1F721503040CA
:107A4000D1F72D9828EE33E0FA013197F1F7215064
:107A50003040D1F7815061F708953F924F925F9285
:107A60006F927F928F929F92AF92BF92CF92DF924E
:107A7000EF92FF920F931F93CF93DF93000082E06A
:107A80008093C00080E18093C4001092C50088E11B
:107A90008093C10086E08093C2005098589A259A3E
:107AA00081E00E94143D24E1F22E9EE1E92E85E959
:107AB000D82E0FE0C02E10E1B12EAA24A394B1E479
:107AC0009B2EA6E58A2EF2E57F2EE0E26E2E79E46B
:107AD000572E63E5462E50E5352E0E94763C8033C6
:107AE000B1F18133B9F1803409F46FC0813409F404
:107AF00076C0823409F485C0853409F488C08035A5
:107B000031F1823521F1813511F1853509F485C0D6
:107B1000863509F48DC0843609F496C0843709F49B
:107B200003C1853709F472C1863709F466C08091B4
:107B300003018F5F80930301853079F6E0910401A2
:107B4000F091050109950E94763C803351F60E9420
:107B5000F33CC3CF0E94763C803249F78091C0004D
:107B600085FFFCCFF092C6008091C00085FFFCCF5E
:107B70009092C6008091C00085FFFCCF8092C60025
:107B80008091C00085FFFCCF7092C6008091C0003C
:107B900085FFFCCF6092C6008091C00085FFFCCFBE
:107BA0005092C6008091C00085FFFCCF4092C60075
:107BB0008091C00085FFFCCF3092C6008091C0004C
:107BC00085FFFCCFB092C60088CF0E94763C8638F5
:107BD00008F4BDCF0E94763C0E94F33C7ECF0E9409
:107BE000763C803809F49CC0813809F40BC1823896
:107BF00009F430C1883909F48FC080E00E94C73C85
:107C00006CCF84E10E94BD3C0E94F33C66CF85E0CE
:107C10000E94BD3C0E94F33C60CF0E94763C809362
:107C200006010E94763C809307010E94F33C55CFE9
:107C30000E94763C803309F411C183E00E94BD3C70
:107C400080E00E94C73C49CF0E94763C80930902A5
:107C50000E94763C8093080280910C028E7F809374
:107C60000C020E94763C853409F409C18091080217
:107C700090910902892B89F000E010E00E94763C87
:107C8000F801E85FFE4F80830F5F1F4F809108026D
:107C9000909109020817190788F30E94763C8032F8
:107CA00009F045CF80910C0280FFF5C0609106017C
:107CB00070910701660F771F7093070160930601AB
:107CC000A0910802B09109021097C9F0E8E0F1E034
:107CD0009B01AD014E0F5F1FF999FECF32BD21BD53
:107CE000819180BDFA9AF99A2F5F3F4FE417F5070B
:107CF00099F76A0F7B1F70930701609306018091CB
:107D0000C00085FFFCCFF092C6008091C00085FFC7
:107D1000FCCFB092C600E1CE83E00E94C73CDDCE2E
:107D200082E00E94C73CD9CE0E94763C8093090233
:107D30000E94763C80930802809106019091070191
:107D4000880F991F90930701809306010E94763C4B
:107D5000853409F49AC080910C028E7F80930C02C6
:107D60000E94763C803209F0B8CE8091C00085FF39
:107D7000FCCFF092C600A0910802B09109021097C2
:107D8000C1F180910C02082F0170182F1695117007
:107D9000E0910601F0910701AF014F5F5F4FBA011B
:107DA00020E030E00023B1F4112339F49491809164
:107DB000C00085FFFCCF9093C6002F5F3F4FCB01E3
:107DC0000196FA012A173B0780F4BC014F5F5F4F11
:107DD000002351F3F999FECFF2BDE1BDF89A90B5B9
:107DE0008091C00085FFFCCFE6CF709307016093C0
:107DF00006018091C00085FDE5CE8091C00085FF21
:107E0000F8CFE0CE81E00E94C73C67CE0E94763C6E
:107E1000803209F08CCE8091C00085FFFCCFF092BB
:107E2000C6008091C00085FFFCCFE092C600809123
:107E3000C00085FFFCCFD092C6008091C00085FFB6
:107E4000FCCFC092C6008091C00085FFFCCFB092ED
:107E5000C60043CE80E10E94C73C3FCE0E94763CE4
:107E60000E94763C182F0E94763C112309F483C0AF
:107E7000113009F484C08FE00E94C73C2ECE80915F
:107E80000C02816080930C02F1CE80910C02816023
:107E900080930C0265CF809107018823880F880B9F
:107EA0008A2180930B028091060190910701880F2F
:107EB000991F90930701809306018091080280FF2B
:107EC00009C08091080290910902019690930902DD
:107ED00080930802F894F999FECF1127E0910601EA
:107EE000F0910701C8E0D1E0809108029091090269
:107EF000103091F40091570001700130D9F303E084
:107F000000935700E8950091570001700130D9F3B4
:107F100001E100935700E8950990199000915700EE
:107F200001700130D9F301E000935700E8951395F3
:107F3000103498F011270091570001700130D9F3E7
:107F400005E000935700E89500915700017001305B
:107F5000D9F301E100935700E8953296029709F0B2
:107F6000C7CF103011F00296E5CF11248091C000E8
:107F700085FFC5CEC8CE8EE10E94C73CAECD85E957
:107F80000E94C73CAACDF894FFCF8000FFFFFFFFFF
:107F9000FFFFFFFFFFFFFFFFFFFFFFFFFFFFFFFFF1
:107FA000FFFFFFFFFFFFFFFFFFFFFFFFFFFFFFFFE1
:107FB000FFFFFFFFFFFFFFFFFFFFFFFFFFFFFFFFD1
:107FC000FFFFFFFFFFFFFFFFFFFFFFFFFFFFFFFFC1
:107FD000FFFFFFFFFFFFFFFFFFFFFFFFFFFFFFFFB1
:107FE000FFFFFFFFFFFFFFFFFFFFFFFFFFFFFFFFA1
:107FF000FFFFFFFFFFFFFFFFFFFFFFFFFFFFFFFF91
:00000001FF
